{
  "contractName": "Expense",
  "abi": [
    {
      "anonymous": false,
      "inputs": [
        {
          "indexed": false,
          "name": "id",
          "type": "uint256"
        }
      ],
      "name": "detailCreated",
      "type": "event"
    },
    {
      "anonymous": false,
      "inputs": [
        {
          "indexed": false,
          "name": "id",
          "type": "uint256"
        },
        {
          "indexed": false,
          "name": "date",
          "type": "string"
        },
        {
          "indexed": false,
          "name": "selectedCategory",
          "type": "string"
        },
        {
          "indexed": false,
          "name": "description",
          "type": "string"
        },
        {
          "indexed": false,
          "name": "amount",
          "type": "string"
        },
        {
          "indexed": false,
          "name": "total",
          "type": "string"
        },
        {
          "indexed": false,
          "name": "selectedSource",
          "type": "string"
        },
        {
          "indexed": false,
          "name": "isDelete",
          "type": "string"
        }
      ],
      "name": "logAllData",
      "type": "event"
    },
    {
      "anonymous": false,
      "inputs": [
        {
          "indexed": false,
          "name": "transaction_id",
          "type": "uint256"
        },
        {
          "indexed": false,
          "name": "date",
          "type": "string"
        },
        {
          "indexed": false,
          "name": "selectedCategory",
          "type": "string"
        },
        {
          "indexed": false,
          "name": "description",
          "type": "string"
        },
        {
          "indexed": false,
          "name": "amount",
          "type": "string"
        }
      ],
      "name": "logAllDataTransactionID",
      "type": "event"
    },
    {
      "anonymous": false,
      "inputs": [
        {
          "indexed": false,
          "name": "total",
          "type": "string"
        },
        {
          "indexed": false,
          "name": "selectedSource",
          "type": "string"
        },
        {
          "indexed": false,
          "name": "isDelete",
          "type": "string"
        },
        {
          "indexed": false,
          "name": "timeStamp",
          "type": "string"
        },
        {
          "indexed": false,
          "name": "expense_id",
          "type": "uint256"
        }
      ],
      "name": "logAllDataTransactionID",
      "type": "event"
    },
    {
      "constant": false,
      "inputs": [
        {
          "name": "_date",
          "type": "string"
        },
        {
          "name": "_selectedCategory",
          "type": "string"
        },
        {
          "name": "_description",
          "type": "string"
        },
        {
          "name": "_amount",
          "type": "string"
        },
        {
          "name": "_total",
          "type": "string"
        },
        {
          "name": "_selectedSource",
          "type": "string"
        },
        {
          "name": "_isDelete",
          "type": "string"
        },
        {
          "name": "_timeStamp",
          "type": "string"
        }
      ],
      "name": "setData",
      "outputs": [],
      "payable": false,
      "stateMutability": "nonpayable",
      "type": "function"
    },
    {
      "constant": true,
      "inputs": [],
      "name": "getAllTransactionID",
      "outputs": [
        {
          "name": "",
          "type": "uint256[]"
        }
      ],
      "payable": false,
      "stateMutability": "view",
      "type": "function"
    },
    {
      "constant": true,
      "inputs": [],
      "name": "getAllId",
      "outputs": [
        {
          "name": "",
          "type": "uint256[]"
        }
      ],
      "payable": false,
      "stateMutability": "view",
      "type": "function"
    },
    {
      "constant": true,
      "inputs": [
        {
          "name": "id",
          "type": "uint256"
        }
      ],
      "name": "getData",
      "outputs": [
        {
          "name": "date",
          "type": "string"
        },
        {
          "name": "selectedCategory",
          "type": "string"
        },
        {
          "name": "description",
          "type": "string"
        },
        {
          "name": "amount",
          "type": "string"
        },
        {
          "name": "total",
          "type": "string"
        },
        {
          "name": "selectedSource",
          "type": "string"
        },
        {
          "name": "isDelete",
          "type": "string"
        }
      ],
      "payable": false,
      "stateMutability": "view",
      "type": "function"
    },
    {
      "constant": false,
      "inputs": [],
      "name": "getAllData",
      "outputs": [],
      "payable": false,
      "stateMutability": "nonpayable",
      "type": "function"
    },
    {
      "constant": false,
      "inputs": [],
      "name": "getDataFromTransactionID",
      "outputs": [],
      "payable": false,
      "stateMutability": "nonpayable",
      "type": "function"
    },
    {
      "constant": false,
      "inputs": [],
      "name": "getDataFromTransactionID2",
      "outputs": [],
      "payable": false,
      "stateMutability": "nonpayable",
      "type": "function"
    },
    {
      "constant": false,
      "inputs": [
        {
          "name": "index",
          "type": "uint256"
        },
        {
          "name": "_date",
          "type": "string"
        },
        {
          "name": "_selectedCategory",
          "type": "string"
        },
        {
          "name": "_description",
          "type": "string"
        },
        {
          "name": "_amount",
          "type": "string"
        },
        {
          "name": "_total",
          "type": "string"
        },
        {
          "name": "_selectedSource",
          "type": "string"
        },
        {
          "name": "_isDelete",
          "type": "string"
        },
        {
          "name": "_timeStamp",
          "type": "string"
        }
      ],
      "name": "update",
      "outputs": [],
      "payable": false,
      "stateMutability": "nonpayable",
      "type": "function"
    }
  ],
  "bytecode": "0x608060405234801561001057600080fd5b50612155806100206000396000f30060806040526004361061008e576000357c0100000000000000000000000000000000000000000000000000000000900463ffffffff1680630178fe3f146100935780631a0e46d9146103c15780632d10fa28146103d8578063311a52b3146103ef5780633cf375ba146104065780637b665ba914610659578063883df3e8146106c55780638a36356914610731575b600080fd5b34801561009f57600080fd5b506100be6004803603810190808035906020019092919050505061098e565b604051808060200180602001806020018060200180602001806020018060200188810388528f818151815260200191508051906020019080838360005b838110156101165780820151818401526020810190506100fb565b50505050905090810190601f1680156101435780820380516001836020036101000a031916815260200191505b5088810387528e818151815260200191508051906020019080838360005b8381101561017c578082015181840152602081019050610161565b50505050905090810190601f1680156101a95780820380516001836020036101000a031916815260200191505b5088810386528d818151815260200191508051906020019080838360005b838110156101e25780820151818401526020810190506101c7565b50505050905090810190601f16801561020f5780820380516001836020036101000a031916815260200191505b5088810385528c818151815260200191508051906020019080838360005b8381101561024857808201518184015260208101905061022d565b50505050905090810190601f1680156102755780820380516001836020036101000a031916815260200191505b5088810384528b818151815260200191508051906020019080838360005b838110156102ae578082015181840152602081019050610293565b50505050905090810190601f1680156102db5780820380516001836020036101000a031916815260200191505b5088810383528a818151815260200191508051906020019080838360005b838110156103145780820151818401526020810190506102f9565b50505050905090810190601f1680156103415780820380516001836020036101000a031916815260200191505b50888103825289818151815260200191508051906020019080838360005b8381101561037a57808201518184015260208101905061035f565b50505050905090810190601f1680156103a75780820380516001836020036101000a031916815260200191505b509e50505050505050505050505050505060405180910390f35b3480156103cd57600080fd5b506103d6610e90565b005b3480156103e457600080fd5b506103ed61117e565b005b3480156103fb57600080fd5b50610404611649565b005b34801561041257600080fd5b50610657600480360381019080803590602001908201803590602001908080601f0160208091040260200160405190810160405280939291908181526020018383808284378201915050505050509192919290803590602001908201803590602001908080601f0160208091040260200160405190810160405280939291908181526020018383808284378201915050505050509192919290803590602001908201803590602001908080601f0160208091040260200160405190810160405280939291908181526020018383808284378201915050505050509192919290803590602001908201803590602001908080601f0160208091040260200160405190810160405280939291908181526020018383808284378201915050505050509192919290803590602001908201803590602001908080601f0160208091040260200160405190810160405280939291908181526020018383808284378201915050505050509192919290803590602001908201803590602001908080601f0160208091040260200160405190810160405280939291908181526020018383808284378201915050505050509192919290803590602001908201803590602001908080601f0160208091040260200160405190810160405280939291908181526020018383808284378201915050505050509192919290803590602001908201803590602001908080601f0160208091040260200160405190810160405280939291908181526020018383808284378201915050505050509192919290505050611937565b005b34801561066557600080fd5b5061066e611cb8565b6040518080602001828103825283818151815260200191508051906020019060200280838360005b838110156106b1578082015181840152602081019050610696565b505050509050019250505060405180910390f35b3480156106d157600080fd5b506106da611d10565b6040518080602001828103825283818151815260200191508051906020019060200280838360005b8381101561071d578082015181840152602081019050610702565b505050509050019250505060405180910390f35b34801561073d57600080fd5b5061098c60048036038101908080359060200190929190803590602001908201803590602001908080601f0160208091040260200160405190810160405280939291908181526020018383808284378201915050505050509192919290803590602001908201803590602001908080601f0160208091040260200160405190810160405280939291908181526020018383808284378201915050505050509192919290803590602001908201803590602001908080601f0160208091040260200160405190810160405280939291908181526020018383808284378201915050505050509192919290803590602001908201803590602001908080601f0160208091040260200160405190810160405280939291908181526020018383808284378201915050505050509192919290803590602001908201803590602001908080601f0160208091040260200160405190810160405280939291908181526020018383808284378201915050505050509192919290803590602001908201803590602001908080601f0160208091040260200160405190810160405280939291908181526020018383808284378201915050505050509192919290803590602001908201803590602001908080601f0160208091040260200160405190810160405280939291908181526020018383808284378201915050505050509192919290803590602001908201803590602001908080601f0160208091040260200160405190810160405280939291908181526020018383808284378201915050505050509192919290505050611d68565b005b6060806060806060806060600460008981526020019081526020016000206001018054600181600116156101000203166002900480601f016020809104026020016040519081016040528092919081815260200182805460018160011615610100020316600290048015610a435780601f10610a1857610100808354040283529160200191610a43565b820191906000526020600020905b815481529060010190602001808311610a2657829003601f168201915b5050505050965086600460008a81526020019081526020016000206002018054600181600116156101000203166002900480601f016020809104026020016040519081016040528092919081815260200182805460018160011615610100020316600290048015610af55780601f10610aca57610100808354040283529160200191610af5565b820191906000526020600020905b815481529060010190602001808311610ad857829003601f168201915b5050505050965086600460008b81526020019081526020016000206003018054600181600116156101000203166002900480601f016020809104026020016040519081016040528092919081815260200182805460018160011615610100020316600290048015610ba75780601f10610b7c57610100808354040283529160200191610ba7565b820191906000526020600020905b815481529060010190602001808311610b8a57829003601f168201915b5050505050965086600460008c81526020019081526020016000206004018054600181600116156101000203166002900480601f016020809104026020016040519081016040528092919081815260200182805460018160011615610100020316600290048015610c595780601f10610c2e57610100808354040283529160200191610c59565b820191906000526020600020905b815481529060010190602001808311610c3c57829003601f168201915b5050505050965086600460008d81526020019081526020016000206005018054600181600116156101000203166002900480601f016020809104026020016040519081016040528092919081815260200182805460018160011615610100020316600290048015610d0b5780601f10610ce057610100808354040283529160200191610d0b565b820191906000526020600020905b815481529060010190602001808311610cee57829003601f168201915b5050505050965086600460008e81526020019081526020016000206006018054600181600116156101000203166002900480601f016020809104026020016040519081016040528092919081815260200182805460018160011615610100020316600290048015610dbd5780601f10610d9257610100808354040283529160200191610dbd565b820191906000526020600020905b815481529060010190602001808311610da057829003601f168201915b5050505050965086600460008f81526020019081526020016000206007018054600181600116156101000203166002900480601f016020809104026020016040519081016040528092919081815260200182805460018160011615610100020316600290048015610e6f5780601f10610e4457610100808354040283529160200191610e6f565b820191906000526020600020905b815481529060010190602001808311610e5257829003601f168201915b50505050509650869650965096509650965096509650919395979092949650565b6000600190505b6003805490508111151561117b577f2bd7488ed323a1883fa68870f96647a668cf247d627cdd3210d78eee7238caf56005600083815260200190815260200160002060000154600560008481526020019081526020016000206001016005600085815260200190815260200160002060020160056000868152602001908152602001600020600301600560008781526020019081526020016000206004016040518086815260200180602001806020018060200180602001858103855289818154600181600116156101000203166002900481526020019150805460018160011615610100020316600290048015610fd05780601f10610fa557610100808354040283529160200191610fd0565b820191906000526020600020905b815481529060010190602001808311610fb357829003601f168201915b50508581038452888181546001816001161561010002031660029004815260200191508054600181600116156101000203166002900480156110535780601f1061102857610100808354040283529160200191611053565b820191906000526020600020905b81548152906001019060200180831161103657829003601f168201915b50508581038352878181546001816001161561010002031660029004815260200191508054600181600116156101000203166002900480156110d65780601f106110ab576101008083540402835291602001916110d6565b820191906000526020600020905b8154815290600101906020018083116110b957829003601f168201915b50508581038252868181546001816001161561010002031660029004815260200191508054600181600116156101000203166002900480156111595780601f1061112e57610100808354040283529160200191611159565b820191906000526020600020905b81548152906001019060200180831161113c57829003601f168201915b5050995050505050505050505060405180910390a18080600101915050610e97565b50565b6000600190505b60028054905081111515611646577fa14ab403b0cb442f2c111e6792512ce78a61dfd8afb40cf25a89750d808ebeea6004600083815260200190815260200160002060000154600460008481526020019081526020016000206001016004600085815260200190815260200160002060020160046000868152602001908152602001600020600301600460008781526020019081526020016000206004016004600088815260200190815260200160002060050160046000898152602001908152602001600020600601600460008a8152602001908152602001600020600701604051808981526020018060200180602001806020018060200180602001806020018060200188810388528f81815460018160011615610100020316600290048152602001915080546001816001161561010002031660029004801561130c5780601f106112e15761010080835404028352916020019161130c565b820191906000526020600020905b8154815290600101906020018083116112ef57829003601f168201915b505088810387528e81815460018160011615610100020316600290048152602001915080546001816001161561010002031660029004801561138f5780601f106113645761010080835404028352916020019161138f565b820191906000526020600020905b81548152906001019060200180831161137257829003601f168201915b505088810386528d8181546001816001161561010002031660029004815260200191508054600181600116156101000203166002900480156114125780601f106113e757610100808354040283529160200191611412565b820191906000526020600020905b8154815290600101906020018083116113f557829003601f168201915b505088810385528c8181546001816001161561010002031660029004815260200191508054600181600116156101000203166002900480156114955780601f1061146a57610100808354040283529160200191611495565b820191906000526020600020905b81548152906001019060200180831161147857829003601f168201915b505088810384528b8181546001816001161561010002031660029004815260200191508054600181600116156101000203166002900480156115185780601f106114ed57610100808354040283529160200191611518565b820191906000526020600020905b8154815290600101906020018083116114fb57829003601f168201915b505088810383528a81815460018160011615610100020316600290048152602001915080546001816001161561010002031660029004801561159b5780601f106115705761010080835404028352916020019161159b565b820191906000526020600020905b81548152906001019060200180831161157e57829003601f168201915b505088810382528981815460018160011615610100020316600290048152602001915080546001816001161561010002031660029004801561161e5780601f106115f35761010080835404028352916020019161161e565b820191906000526020600020905b81548152906001019060200180831161160157829003601f168201915b50509f5050505050505050505050505050505060405180910390a18080600101915050611185565b50565b6000600190505b60038054905081111515611934577f601d91d85f76bd80d7264fbad418f6df0299cf1b1bae9728cb1bd24e9cd530fd600560008381526020019081526020016000206005016005600084815260200190815260200160002060060160056000858152602001908152602001600020600701600560008681526020019081526020016000206008016005600087815260200190815260200160002060090154604051808060200180602001806020018060200186815260200185810385528a8181546001816001161561010002031660029004815260200191508054600181600116156101000203166002900480156117895780601f1061175e57610100808354040283529160200191611789565b820191906000526020600020905b81548152906001019060200180831161176c57829003601f168201915b505085810384528981815460018160011615610100020316600290048152602001915080546001816001161561010002031660029004801561180c5780601f106117e15761010080835404028352916020019161180c565b820191906000526020600020905b8154815290600101906020018083116117ef57829003601f168201915b505085810383528881815460018160011615610100020316600290048152602001915080546001816001161561010002031660029004801561188f5780601f106118645761010080835404028352916020019161188f565b820191906000526020600020905b81548152906001019060200180831161187257829003601f168201915b50508581038252878181546001816001161561010002031660029004815260200191508054600181600116156101000203166002900480156119125780601f106118e757610100808354040283529160200191611912565b820191906000526020600020905b8154815290600101906020018083116118f557829003601f168201915b5050995050505050505050505060405180910390a18080600101915050611650565b50565b60008081548092919060010191905055506000546004600080548152602001908152602001600020600001819055508760046000805481526020019081526020016000206001019080519060200190611991929190612084565b5086600460008054815260200190815260200160002060020190805190602001906119bd929190612084565b5085600460008054815260200190815260200160002060030190805190602001906119e9929190612084565b508460046000805481526020019081526020016000206004019080519060200190611a15929190612084565b508360046000805481526020019081526020016000206005019080519060200190611a41929190612084565b508260046000805481526020019081526020016000206006019080519060200190611a6d929190612084565b508160046000805481526020019081526020016000206007019080519060200190611a99929190612084565b506002600054908060018154018082558091505090600182039060005260206000200160009091929091909150555060016000815480929190600101919050555060015460056000600154815260200190815260200160002060000181905550876005600060015481526020019081526020016000206001019080519060200190611b25929190612084565b50866005600060015481526020019081526020016000206002019080519060200190611b52929190612084565b50856005600060015481526020019081526020016000206003019080519060200190611b7f929190612084565b50846005600060015481526020019081526020016000206004019080519060200190611bac929190612084565b50836005600060015481526020019081526020016000206005019080519060200190611bd9929190612084565b50826005600060015481526020019081526020016000206006019080519060200190611c06929190612084565b50816005600060015481526020019081526020016000206007019080519060200190611c33929190612084565b50806005600060015481526020019081526020016000206008019080519060200190611c60929190612084565b5060005460056000600154815260200190815260200160002060090181905550600360015490806001815401808255809150509060018203906000526020600020016000909192909190915055505050505050505050565b60606003805480602002602001604051908101604052809291908181526020018280548015611d0657602002820191906000526020600020905b815481526020019060010190808311611cf2575b5050505050905090565b60606002805480602002602001604051908101604052809291908181526020018280548015611d5e57602002820191906000526020600020905b815481526020019060010190808311611d4a575b5050505050905090565b87600460008b81526020019081526020016000206001019080519060200190611d92929190612084565b5086600460008b81526020019081526020016000206002019080519060200190611dbd929190612084565b5085600460008b81526020019081526020016000206003019080519060200190611de8929190612084565b5084600460008b81526020019081526020016000206004019080519060200190611e13929190612084565b5083600460008b81526020019081526020016000206005019080519060200190611e3e929190612084565b5082600460008b81526020019081526020016000206006019080519060200190611e69929190612084565b5081600460008b81526020019081526020016000206007019080519060200190611e94929190612084565b5060016000815480929190600101919050555060015460056000600154815260200190815260200160002060000181905550876005600060015481526020019081526020016000206001019080519060200190611ef2929190612084565b50866005600060015481526020019081526020016000206002019080519060200190611f1f929190612084565b50856005600060015481526020019081526020016000206003019080519060200190611f4c929190612084565b50846005600060015481526020019081526020016000206004019080519060200190611f79929190612084565b50836005600060015481526020019081526020016000206005019080519060200190611fa6929190612084565b50826005600060015481526020019081526020016000206006019080519060200190611fd3929190612084565b50816005600060015481526020019081526020016000206007019080519060200190612000929190612084565b5080600560006001548152602001908152602001600020600801908051906020019061202d929190612084565b50886005600060015481526020019081526020016000206009018190555060036001549080600181540180825580915050906001820390600052602060002001600090919290919091505550505050505050505050565b828054600181600116156101000203166002900490600052602060002090601f016020900481019282601f106120c557805160ff19168380011785556120f3565b828001600101855582156120f3579182015b828111156120f25782518255916020019190600101906120d7565b5b5090506121009190612104565b5090565b61212691905b8082111561212257600081600090555060010161210a565b5090565b905600a165627a7a7230582096259303a511127c0bdeb56d786acc2592b97b03dcb3ba18efcdc224a24283f00029",
  "source": "pragma solidity ^0.4.25;\n\ncontract Expense{\n    \n    struct detail{\n        uint id;\n        string date;\n        string selectedCategory;\n        string description;\n        string amount;\n        string total;\n        string selectedSource;\n        string isDelete;\n        // string timeStamp;\n    }\n    \n    struct detail2{\n        uint transaction_id;\n        string date;\n        string selectedCategory;\n        string description;\n        string amount;\n        string total;\n        string selectedSource;\n        string isDelete;\n        string timeStamp;\n        uint expense_id;\n    }\n    \n    \n    \n    uint private last_detail_id;\n    uint private last_detail_transaction_id;\n    uint[] private all_detail_id;\n    uint[] private all_transaction_id;\n    mapping(uint => detail) _detail;\n    mapping(uint => detail2) _detail2;\n\n    event detailCreated(uint id);\n    event logAllData(\n        uint id,\n        string date,\n        string selectedCategory,\n        string description,\n        string amount,\n        string total,\n        string selectedSource,\n        string isDelete\n    );\n    \n    event logAllDataTransactionID(\n        uint transaction_id,\n        string date,\n        string selectedCategory,\n        string description,\n        string amount\n    );\n    \n    event logAllDataTransactionID(\n        string total,\n        string selectedSource,\n        string isDelete,\n        string timeStamp,\n        uint expense_id\n    );\n    \n    \n    function setData(\n        string _date,\n        string _selectedCategory,\n        string _description,\n        string _amount,\n        string _total,\n        string _selectedSource,\n        string _isDelete,\n        string _timeStamp\n    ) public {\n        \n        // add new Expense.\n        last_detail_id++;\n        _detail[last_detail_id].id = last_detail_id;\n        _detail[last_detail_id].date = _date;\n        _detail[last_detail_id].selectedCategory = _selectedCategory;\n        _detail[last_detail_id].description = _description;\n        _detail[last_detail_id].amount = _amount;\n        _detail[last_detail_id].total = _total;\n        _detail[last_detail_id].selectedSource = _selectedSource;\n        _detail[last_detail_id].isDelete = _isDelete;\n        all_detail_id.push(last_detail_id);\n        // emit detailCreated(last_detail_id);\n        \n        \n        // add new transaction Log of Expense. \n        last_detail_transaction_id++;\n        _detail2[last_detail_transaction_id].transaction_id = last_detail_transaction_id;\n        _detail2[last_detail_transaction_id].date = _date;\n        _detail2[last_detail_transaction_id].selectedCategory = _selectedCategory;\n        _detail2[last_detail_transaction_id].description = _description;\n        _detail2[last_detail_transaction_id].amount = _amount;\n        _detail2[last_detail_transaction_id].total = _total;\n        _detail2[last_detail_transaction_id].selectedSource = _selectedSource;\n        _detail2[last_detail_transaction_id].isDelete = _isDelete;\n        _detail2[last_detail_transaction_id].timeStamp = _timeStamp;\n        _detail2[last_detail_transaction_id].expense_id = last_detail_id;\n        all_transaction_id.push(last_detail_transaction_id);\n    }\n    \n    function getAllTransactionID() public view returns(uint[]){\n        return all_transaction_id;\n    }\n    \n    function getAllId() public view returns(uint[]){\n        return all_detail_id;\n    }\n    \n    function getData(uint id) public view returns(\n        string date,\n        string selectedCategory,\n        string description,\n        string amount,\n        string total,\n        string selectedSource,\n        string isDelete){\n        return(\n            date = _detail[id].date,\n            selectedCategory = _detail[id].selectedCategory,\n            description = _detail[id].description,\n            amount = _detail[id].amount,\n            total = _detail[id].total,\n            selectedSource = _detail[id].selectedSource,\n            isDelete = _detail[id].isDelete\n        );\n    }\n    \n    \n    function getAllData() public {\n        for(uint i=1 ; i<=all_detail_id.length ; i++){\n            emit logAllData(\n                _detail[i].id,\n                _detail[i].date,\n                _detail[i].selectedCategory,\n                _detail[i].description,\n                _detail[i].amount,\n                _detail[i].total,\n                _detail[i].selectedSource,\n                _detail[i].isDelete\n            );\n        }\n    }\n    \n    function getDataFromTransactionID() public{\n        for(uint i=1; i<=all_transaction_id.length;i++){\n            emit logAllDataTransactionID(\n                _detail2[i].transaction_id,\n                _detail2[i].date,\n                _detail2[i].selectedCategory,\n                _detail2[i].description,\n                _detail2[i].amount\n            );\n        }\n    }\n    \n    function getDataFromTransactionID2() public{\n        for(uint i=1; i<=all_transaction_id.length;i++){\n            emit logAllDataTransactionID(\n                _detail2[i].total,\n                _detail2[i].selectedSource,\n                _detail2[i].isDelete,\n                _detail2[i].timeStamp,\n                _detail2[i].expense_id\n            );\n        }\n    }\n    \n    function update(\n        uint index,\n        string _date,\n        string _selectedCategory,\n        string _description,\n        string _amount,\n        string _total,\n        string _selectedSource,\n        string _isDelete,\n        string _timeStamp\n    ) public {\n        _detail[index].date = _date;\n        _detail[index].selectedCategory = _selectedCategory;\n        _detail[index].description = _description;\n        _detail[index].amount = _amount;\n        _detail[index].total = _total;\n        _detail[index].selectedSource = _selectedSource;\n        _detail[index].isDelete = _isDelete;\n        \n         // add new update transaction Log of Expense. \n        last_detail_transaction_id++;\n        _detail2[last_detail_transaction_id].transaction_id = last_detail_transaction_id;\n        _detail2[last_detail_transaction_id].date = _date;\n        _detail2[last_detail_transaction_id].selectedCategory = _selectedCategory;\n        _detail2[last_detail_transaction_id].description = _description;\n        _detail2[last_detail_transaction_id].amount = _amount;\n        _detail2[last_detail_transaction_id].total = _total;\n        _detail2[last_detail_transaction_id].selectedSource = _selectedSource;\n        _detail2[last_detail_transaction_id].isDelete = _isDelete;\n        _detail2[last_detail_transaction_id].timeStamp = _timeStamp;\n        _detail2[last_detail_transaction_id].expense_id = index;\n        all_transaction_id.push(last_detail_transaction_id);\n    }\n   \n}",
  "sourcePath": "/root/Myproject-accounting-system/BackEnd-accounting-system-enter/truffle/contracts/Expense.sol",
  "compiler": {
    "name": "solc",
    "version": "0.4.26+commit.4563c3fc.Emscripten.clang"
  },
  "schemaVersion": "3.0.16",
  "updatedAt": "2019-10-07T09:50:35.482Z",
  "devdoc": {
    "methods": {}
  },
  "userdoc": {
    "methods": {}
  }
}