{
  "contractName": "Expense",
  "abi": [
    {
      "anonymous": false,
      "inputs": [
        {
          "indexed": false,
          "name": "id",
          "type": "uint256"
        }
      ],
      "name": "detailCreated",
      "type": "event",
      "signature": "0xc4055c9232352fd34c8284db1eef81f6cfca9dcc078f58ffb49d56984ba54e30"
    },
    {
      "anonymous": false,
      "inputs": [
        {
          "indexed": false,
          "name": "id",
          "type": "uint256"
        },
        {
          "indexed": false,
          "name": "date",
          "type": "string"
        },
        {
          "indexed": false,
          "name": "selectedCategory",
          "type": "string"
        },
        {
          "indexed": false,
          "name": "description",
          "type": "string"
        },
        {
          "indexed": false,
          "name": "amount",
          "type": "string"
        },
        {
          "indexed": false,
          "name": "total",
          "type": "string"
        },
        {
          "indexed": false,
          "name": "selectedSource",
          "type": "string"
        },
        {
          "indexed": false,
          "name": "isDelete",
          "type": "string"
        }
      ],
      "name": "logAllData",
      "type": "event",
      "signature": "0xa14ab403b0cb442f2c111e6792512ce78a61dfd8afb40cf25a89750d808ebeea"
    },
    {
      "constant": false,
      "inputs": [
        {
          "name": "_date",
          "type": "string"
        },
        {
          "name": "_selectedCategory",
          "type": "string"
        },
        {
          "name": "_description",
          "type": "string"
        },
        {
          "name": "_amount",
          "type": "string"
        },
        {
          "name": "_total",
          "type": "string"
        },
        {
          "name": "_selectedSource",
          "type": "string"
        },
        {
          "name": "_isDelete",
          "type": "string"
        }
      ],
      "name": "setData",
      "outputs": [],
      "payable": false,
      "stateMutability": "nonpayable",
      "type": "function",
      "signature": "0x3e2e7245"
    },
    {
      "constant": true,
      "inputs": [],
      "name": "getAllId",
      "outputs": [
        {
          "name": "",
          "type": "uint256[]"
        }
      ],
      "payable": false,
      "stateMutability": "view",
      "type": "function",
      "signature": "0x883df3e8"
    },
    {
      "constant": true,
      "inputs": [
        {
          "name": "id",
          "type": "uint256"
        }
      ],
      "name": "getData",
      "outputs": [
        {
          "name": "date",
          "type": "string"
        },
        {
          "name": "selectedCategory",
          "type": "string"
        },
        {
          "name": "description",
          "type": "string"
        },
        {
          "name": "amount",
          "type": "string"
        },
        {
          "name": "total",
          "type": "string"
        },
        {
          "name": "selectedSource",
          "type": "string"
        },
        {
          "name": "isDelete",
          "type": "string"
        }
      ],
      "payable": false,
      "stateMutability": "view",
      "type": "function",
      "signature": "0x0178fe3f"
    },
    {
      "constant": false,
      "inputs": [],
      "name": "getAllData",
      "outputs": [],
      "payable": false,
      "stateMutability": "nonpayable",
      "type": "function",
      "signature": "0x2d10fa28"
    },
    {
      "constant": false,
      "inputs": [
        {
          "name": "index",
          "type": "uint256"
        },
        {
          "name": "_date",
          "type": "string"
        },
        {
          "name": "_selectedCategory",
          "type": "string"
        },
        {
          "name": "_description",
          "type": "string"
        },
        {
          "name": "_amount",
          "type": "string"
        },
        {
          "name": "_total",
          "type": "string"
        },
        {
          "name": "_selectedSource",
          "type": "string"
        },
        {
          "name": "_isDelete",
          "type": "string"
        }
      ],
      "name": "update",
      "outputs": [],
      "payable": false,
      "stateMutability": "nonpayable",
      "type": "function",
      "signature": "0x4f0cf514"
    }
  ],
  "bytecode": "0x608060405234801561001057600080fd5b50611647806100206000396000f30060806040526004361061006d576000357c0100000000000000000000000000000000000000000000000000000000900463ffffffff1680630178fe3f146100725780632d10fa28146103a05780633e2e7245146103b75780634f0cf514146105c4578063883df3e8146107db575b600080fd5b34801561007e57600080fd5b5061009d60048036038101908080359060200190929190505050610847565b604051808060200180602001806020018060200180602001806020018060200188810388528f818151815260200191508051906020019080838360005b838110156100f55780820151818401526020810190506100da565b50505050905090810190601f1680156101225780820380516001836020036101000a031916815260200191505b5088810387528e818151815260200191508051906020019080838360005b8381101561015b578082015181840152602081019050610140565b50505050905090810190601f1680156101885780820380516001836020036101000a031916815260200191505b5088810386528d818151815260200191508051906020019080838360005b838110156101c15780820151818401526020810190506101a6565b50505050905090810190601f1680156101ee5780820380516001836020036101000a031916815260200191505b5088810385528c818151815260200191508051906020019080838360005b8381101561022757808201518184015260208101905061020c565b50505050905090810190601f1680156102545780820380516001836020036101000a031916815260200191505b5088810384528b818151815260200191508051906020019080838360005b8381101561028d578082015181840152602081019050610272565b50505050905090810190601f1680156102ba5780820380516001836020036101000a031916815260200191505b5088810383528a818151815260200191508051906020019080838360005b838110156102f35780820151818401526020810190506102d8565b50505050905090810190601f1680156103205780820380516001836020036101000a031916815260200191505b50888103825289818151815260200191508051906020019080838360005b8381101561035957808201518184015260208101905061033e565b50505050905090810190601f1680156103865780820380516001836020036101000a031916815260200191505b509e50505050505050505050505050505060405180910390f35b3480156103ac57600080fd5b506103b5610d49565b005b3480156103c357600080fd5b506105c2600480360381019080803590602001908201803590602001908080601f0160208091040260200160405190810160405280939291908181526020018383808284378201915050505050509192919290803590602001908201803590602001908080601f0160208091040260200160405190810160405280939291908181526020018383808284378201915050505050509192919290803590602001908201803590602001908080601f0160208091040260200160405190810160405280939291908181526020018383808284378201915050505050509192919290803590602001908201803590602001908080601f0160208091040260200160405190810160405280939291908181526020018383808284378201915050505050509192919290803590602001908201803590602001908080601f0160208091040260200160405190810160405280939291908181526020018383808284378201915050505050509192919290803590602001908201803590602001908080601f0160208091040260200160405190810160405280939291908181526020018383808284378201915050505050509192919290803590602001908201803590602001908080601f0160208091040260200160405190810160405280939291908181526020018383808284378201915050505050509192919290505050611214565b005b3480156105d057600080fd5b506107d960048036038101908080359060200190929190803590602001908201803590602001908080601f0160208091040260200160405190810160405280939291908181526020018383808284378201915050505050509192919290803590602001908201803590602001908080601f0160208091040260200160405190810160405280939291908181526020018383808284378201915050505050509192919290803590602001908201803590602001908080601f0160208091040260200160405190810160405280939291908181526020018383808284378201915050505050509192919290803590602001908201803590602001908080601f0160208091040260200160405190810160405280939291908181526020018383808284378201915050505050509192919290803590602001908201803590602001908080601f0160208091040260200160405190810160405280939291908181526020018383808284378201915050505050509192919290803590602001908201803590602001908080601f0160208091040260200160405190810160405280939291908181526020018383808284378201915050505050509192919290803590602001908201803590602001908080601f01602080910402602001604051908101604052809392919081815260200183838082843782019150505050505091929192905050506113e7565b005b3480156107e757600080fd5b506107f061151e565b6040518080602001828103825283818151815260200191508051906020019060200280838360005b83811015610833578082015181840152602081019050610818565b505050509050019250505060405180910390f35b6060806060806060806060600260008981526020019081526020016000206001018054600181600116156101000203166002900480601f0160208091040260200160405190810160405280929190818152602001828054600181600116156101000203166002900480156108fc5780601f106108d1576101008083540402835291602001916108fc565b820191906000526020600020905b8154815290600101906020018083116108df57829003601f168201915b5050505050965086600260008a81526020019081526020016000206002018054600181600116156101000203166002900480601f0160208091040260200160405190810160405280929190818152602001828054600181600116156101000203166002900480156109ae5780601f10610983576101008083540402835291602001916109ae565b820191906000526020600020905b81548152906001019060200180831161099157829003601f168201915b5050505050965086600260008b81526020019081526020016000206003018054600181600116156101000203166002900480601f016020809104026020016040519081016040528092919081815260200182805460018160011615610100020316600290048015610a605780601f10610a3557610100808354040283529160200191610a60565b820191906000526020600020905b815481529060010190602001808311610a4357829003601f168201915b5050505050965086600260008c81526020019081526020016000206004018054600181600116156101000203166002900480601f016020809104026020016040519081016040528092919081815260200182805460018160011615610100020316600290048015610b125780601f10610ae757610100808354040283529160200191610b12565b820191906000526020600020905b815481529060010190602001808311610af557829003601f168201915b5050505050965086600260008d81526020019081526020016000206005018054600181600116156101000203166002900480601f016020809104026020016040519081016040528092919081815260200182805460018160011615610100020316600290048015610bc45780601f10610b9957610100808354040283529160200191610bc4565b820191906000526020600020905b815481529060010190602001808311610ba757829003601f168201915b5050505050965086600260008e81526020019081526020016000206006018054600181600116156101000203166002900480601f016020809104026020016040519081016040528092919081815260200182805460018160011615610100020316600290048015610c765780601f10610c4b57610100808354040283529160200191610c76565b820191906000526020600020905b815481529060010190602001808311610c5957829003601f168201915b5050505050965086600260008f81526020019081526020016000206007018054600181600116156101000203166002900480601f016020809104026020016040519081016040528092919081815260200182805460018160011615610100020316600290048015610d285780601f10610cfd57610100808354040283529160200191610d28565b820191906000526020600020905b815481529060010190602001808311610d0b57829003601f168201915b50505050509650869650965096509650965096509650919395979092949650565b6000600190505b60018054905081111515611211577fa14ab403b0cb442f2c111e6792512ce78a61dfd8afb40cf25a89750d808ebeea6002600083815260200190815260200160002060000154600260008481526020019081526020016000206001016002600085815260200190815260200160002060020160026000868152602001908152602001600020600301600260008781526020019081526020016000206004016002600088815260200190815260200160002060050160026000898152602001908152602001600020600601600260008a8152602001908152602001600020600701604051808981526020018060200180602001806020018060200180602001806020018060200188810388528f818154600181600116156101000203166002900481526020019150805460018160011615610100020316600290048015610ed75780601f10610eac57610100808354040283529160200191610ed7565b820191906000526020600020905b815481529060010190602001808311610eba57829003601f168201915b505088810387528e818154600181600116156101000203166002900481526020019150805460018160011615610100020316600290048015610f5a5780601f10610f2f57610100808354040283529160200191610f5a565b820191906000526020600020905b815481529060010190602001808311610f3d57829003601f168201915b505088810386528d818154600181600116156101000203166002900481526020019150805460018160011615610100020316600290048015610fdd5780601f10610fb257610100808354040283529160200191610fdd565b820191906000526020600020905b815481529060010190602001808311610fc057829003601f168201915b505088810385528c8181546001816001161561010002031660029004815260200191508054600181600116156101000203166002900480156110605780601f1061103557610100808354040283529160200191611060565b820191906000526020600020905b81548152906001019060200180831161104357829003601f168201915b505088810384528b8181546001816001161561010002031660029004815260200191508054600181600116156101000203166002900480156110e35780601f106110b8576101008083540402835291602001916110e3565b820191906000526020600020905b8154815290600101906020018083116110c657829003601f168201915b505088810383528a8181546001816001161561010002031660029004815260200191508054600181600116156101000203166002900480156111665780601f1061113b57610100808354040283529160200191611166565b820191906000526020600020905b81548152906001019060200180831161114957829003601f168201915b50508881038252898181546001816001161561010002031660029004815260200191508054600181600116156101000203166002900480156111e95780601f106111be576101008083540402835291602001916111e9565b820191906000526020600020905b8154815290600101906020018083116111cc57829003601f168201915b50509f5050505050505050505050505050505060405180910390a18080600101915050610d50565b50565b6000808154809291906001019190505550600054600260008054815260200190815260200160002060000181905550866002600080548152602001908152602001600020600101908051906020019061126e929190611576565b50856002600080548152602001908152602001600020600201908051906020019061129a929190611576565b5084600260008054815260200190815260200160002060030190805190602001906112c6929190611576565b5083600260008054815260200190815260200160002060040190805190602001906112f2929190611576565b50826002600080548152602001908152602001600020600501908051906020019061131e929190611576565b50816002600080548152602001908152602001600020600601908051906020019061134a929190611576565b508060026000805481526020019081526020016000206007019080519060200190611376929190611576565b50600160005490806001815401808255809150509060018203906000526020600020016000909192909190915055507fc4055c9232352fd34c8284db1eef81f6cfca9dcc078f58ffb49d56984ba54e306000546040518082815260200191505060405180910390a150505050505050565b86600260008a81526020019081526020016000206001019080519060200190611411929190611576565b5085600260008a8152602001908152602001600020600201908051906020019061143c929190611576565b5084600260008a81526020019081526020016000206003019080519060200190611467929190611576565b5083600260008a81526020019081526020016000206004019080519060200190611492929190611576565b5082600260008a815260200190815260200160002060050190805190602001906114bd929190611576565b5081600260008a815260200190815260200160002060060190805190602001906114e8929190611576565b5080600260008a81526020019081526020016000206007019080519060200190611513929190611576565b505050505050505050565b6060600180548060200260200160405190810160405280929190818152602001828054801561156c57602002820191906000526020600020905b815481526020019060010190808311611558575b5050505050905090565b828054600181600116156101000203166002900490600052602060002090601f016020900481019282601f106115b757805160ff19168380011785556115e5565b828001600101855582156115e5579182015b828111156115e45782518255916020019190600101906115c9565b5b5090506115f291906115f6565b5090565b61161891905b808211156116145760008160009055506001016115fc565b5090565b905600a165627a7a723058209d07fc5bcff638c3735b09c06e90deac985e52337a71427484880e774d2410010029",
  "source": "pragma solidity ^0.4.25;\r\n\r\ncontract Expense{\r\n    struct detail{\r\n        uint id;\r\n        string date;\r\n        string selectedCategory;\r\n        string description;\r\n        string amount;\r\n        string total;\r\n        string selectedSource;\r\n        string isDelete;\r\n        // string timeStamp;\r\n    }\r\n    \r\n    uint private last_detail_id;\r\n    uint[] private all_detail_id;\r\n    mapping(uint => detail) _detail;\r\n\r\n    event detailCreated(uint id);\r\n    event logAllData(\r\n        uint id,\r\n        string date,\r\n        string selectedCategory,\r\n        string description,\r\n        string amount,\r\n        string total,\r\n        string selectedSource,\r\n        string isDelete\r\n    );\r\n    \r\n    // event logAllData2(\r\n    //     uint id,\r\n    //     string timeStamp\r\n    // );\r\n    \r\n    function setData(\r\n        string _date,\r\n        string _selectedCategory,\r\n        string _description,\r\n        string _amount,\r\n        string _total,\r\n        string _selectedSource,\r\n        string _isDelete\r\n        // string _timeStamp\r\n    ) public {\r\n        last_detail_id++;\r\n        _detail[last_detail_id].id = last_detail_id;\r\n        _detail[last_detail_id].date = _date;\r\n        _detail[last_detail_id].selectedCategory = _selectedCategory;\r\n        _detail[last_detail_id].description = _description;\r\n        _detail[last_detail_id].amount = _amount;\r\n        _detail[last_detail_id].total = _total;\r\n        _detail[last_detail_id].selectedSource = _selectedSource;\r\n        _detail[last_detail_id].isDelete = _isDelete;\r\n        // _detail[last_detail_id].timeStamp = _timeStamp;\r\n        \r\n        all_detail_id.push(last_detail_id);\r\n        emit detailCreated(last_detail_id);\r\n    }\r\n    \r\n    function getAllId() public view returns(uint[]){\r\n        return all_detail_id;\r\n    }\r\n    \r\n    function getData(uint id) public view returns(\r\n        string date,\r\n        string selectedCategory,\r\n        string description,\r\n        string amount,\r\n        string total,\r\n        string selectedSource,\r\n        string isDelete){\r\n        return(\r\n            date = _detail[id].date,\r\n            selectedCategory = _detail[id].selectedCategory,\r\n            description = _detail[id].description,\r\n            amount = _detail[id].amount,\r\n            total = _detail[id].total,\r\n            selectedSource = _detail[id].selectedSource,\r\n            isDelete = _detail[id].isDelete\r\n        );\r\n    }\r\n    \r\n    // function getData2(uint id) public view returns(\r\n    //     string timeStamp){\r\n    //     return(\r\n    //         timeStamp = _detail[id].timeStamp    \r\n    //     );\r\n    // }\r\n    \r\n    function getAllData() public {\r\n        for(uint i=1 ; i<=all_detail_id.length ; i++){\r\n            emit logAllData(\r\n                _detail[i].id,\r\n                _detail[i].date,\r\n                _detail[i].selectedCategory,\r\n                _detail[i].description,\r\n                _detail[i].amount,\r\n                _detail[i].total,\r\n                _detail[i].selectedSource,\r\n                _detail[i].isDelete\r\n            );\r\n        }\r\n    }\r\n    \r\n    // function getAllData2() public {\r\n    //     for(uint i=1 ; i<=all_detail_id.length ; i++){\r\n    //         emit logAllData2(\r\n    //             _detail[i].id,\r\n    //             _detail[i].timeStamp\r\n    //         );\r\n    //     }\r\n    // }\r\n    \r\n    function update(\r\n        uint index,\r\n        string _date,\r\n        string _selectedCategory,\r\n        string _description,\r\n        string _amount,\r\n        string _total,\r\n        string _selectedSource,\r\n        string _isDelete\r\n    ) public {\r\n        _detail[index].date = _date;\r\n        _detail[index].selectedCategory = _selectedCategory;\r\n        _detail[index].description = _description;\r\n        _detail[index].amount = _amount;\r\n        _detail[index].total = _total;\r\n        _detail[index].selectedSource = _selectedSource;\r\n        _detail[index].isDelete = _isDelete;\r\n    }\r\n    \r\n    // function update2(\r\n    //     uint index,\r\n    //     string _timeStamp\r\n    // ) public {\r\n    //     _detail[index].timeStamp = _timeStamp;\r\n    // }\r\n}\r\n\r\n",
  "sourcePath": "/mnt/d/Myproject/BackEnd-accounting-system-enter/truffle/contracts/Expense.sol",
  "compiler": {
    "name": "solc",
    "version": "0.4.26+commit.4563c3fc.Emscripten.clang"
  },
  "schemaVersion": "3.0.6",
  "updatedAt": "2019-06-18T09:21:40.259Z",
  "devdoc": {
    "methods": {}
  },
  "userdoc": {
    "methods": {}
  }
}